:020000040800F2
:1000000068280020490100089F01000897010008A6
:100010009B01000891010008DD02000800000000BB
:10002000000000000000000000000000A301000824
:100030009501000800000000A1010008A5010008CA
:100040006301000863010008630100086301000800
:1000500063010008630100086301000863010008F0
:1000600063010008630100086301000863010008E0
:1000700063010008630100086301000863010008D0
:1000800063010008630100086301000863010008C0
:1000900063010008630100086301000863010008B0
:1000A00063010008630100086301000863010008A0
:1000B0006301000863010008630100086301000890
:1000C0006301000863010008630100086301000880
:1000D00063010008110200086301000863010008C1
:1000E0006301000863010008630100086301000860
:1000F0006301000863010008630100086301000850
:10010000630100086301000863010008630100083F
:10011000630100086301000863010008630100082F
:10012000630100086301000863010008630100081F
:10013000DFF810D000F01AF800480047010400086A
:10014000AFF3008068280020064880470648004733
:10015000FEE7FEE7FEE7FEE7FEE7FEE7FEE7FEE777
:10016000FEE7FEE7AD01000831010008064C074D2F
:1001700006E0E06840F0010394E807009847103477
:10018000AC42F6D3FFF7D8FF300500085005000851
:1001900000BFFEE7704700BFFEE700BFFEE7704705
:1001A0007047704710B500F0ABF810BD10B514489B
:1001B000006840F001001249086008464068114993
:1001C00008400F494860084600680F4908400C493C
:1001D00008600846006820F48020086008464068EF
:1001E0000A49084006494860084600680649084030
:1001F000034908604FF41F00886000F065F910BDE6
:10020000001002400C00FFE8FFFFF6FEFFFF00F7C2
:1002100010B52D492D4800F06FF9002852D0042167
:100220002A4800F05AF9294800F052F904212848D8
:1002300000F0D5F840F20111081A2649098808444F
:100240002449088008460088401E23490844214963
:10025000496D48601F48406D08301E494865084692
:10026000406DC96D884203D11A48001D011F4865C1
:1002700018480088C0F50060FF2807DD1548008891
:10028000154908441349496D086006E012481149B0
:10029000496D086000200F49088004210C4800F0D7
:1002A0003BF840F201120421094800F085F80948A2
:1002B000406D04210268064800F060F804210448FB
:1002C00000F043F810BD00000403040000380140B2
:1002D00000000240040800200400002000BFFEE7E8
:1002E00002E008C8121F08C1002AFAD170477047FF
:1002F000002001E001C1121F002AFBD1704700005D
:100300000448006820B103480068401E01490860A5
:10031000704700000000002070B505460C462146DD
:10032000284600F03DF808B900BFFEE704EB840062
:10033000810005F10800405820F0010104EB840021
:10034000820005F10800815070BD70B505460C466D
:100350002146284600F024F808B900BFFEE704EB68
:100360008400810005F10800405840F0010104EBD1
:100370008400820005F10800815070BD70B506460A
:100380000C4615462146304600F00AF808B900BF71
:10039000FEE704EB8400810006F11400455070BDB7
:1003A00002460120034B9A4202D1042900DD0020BD
:1003B000704700000004024070B506460C46154622
:1003C00021463046FFF7ECFF08B900BFFEE7A9B2AF
:1003D00004EB8400820006F10C00815070BD70B502
:1003E00005460C4621462846FFF7DAFF08B900BF4C
:1003F000FEE704EB8400810005F10C00405870BD5D
:1004000000BFFEE7002000212C4A126842F480322F
:100410002A4B1A6000BF401C284A126802F40031BF
:1004200019B94FF6FF729042F5D1244A126802F4CE
:1004300000320AB900BFFEE7204A52681F4B5A60DB
:100440001A4652685A601A46526842F480625A60EC
:100450001A46526822F440325A601A46526842F4F0
:1004600040325A601A465268154B1A40134B5A6074
:100470001A465268134B1A43104B5A601A461268B8
:1004800042F080721A6000BF0C4A126802F00072DB
:10049000002AF9D0094A526822F00302074B5A6039
:1004A0001A46526842F002025A6000BF034A52687C
:1004B00002F00802002AF9D0704700000010024044
:1004C000FFFFC3F70000280810B5FFF79BFF10BD22
:1004D00001464868C0F30800704710B5024602EBB9
:1004E0009110006801F01F040123A340184008B1D7
:1004F000012010BD0020FCE770B502460023002457
:10050000C1F38910105801F01F060125B54000EA1B
:10051000050302EB91500068C1F304460125B54084
:1005200000EA050414B10BB1012070BD0020FCE706
:10053000500500080000002004000000E002000850
:10054000540500080400002064280000F0020008A0
:0405500000000000A7
:0400000508000131BD
:00000001FF
