:020000040800F2
:100000006830002049010008C9060008C106000840
:10001000C5060008BB060008310800080000000003
:10002000000000000000000000000000F7060008CB
:10003000BF06000800000000F5060008F9060008E9
:100040006301000863010008630100086301000800
:1000500063010008630100086301000863010008F0
:1000600063010008630100086301000863010008E0
:1000700063010008630100086301000863010008D0
:1000800063010008630100086301000863010008C0
:1000900063010008630100086301000863010008B0
:1000A00063010008630100086301000863010008A0
:1000B0006301000863010008630100086301000890
:1000C0006301000863010008630100086301000880
:1000D0006301000865070008630100086301000868
:1000E0006301000863010008630100086301000860
:1000F0006301000863010008630100086301000850
:10010000630100086301000863010008630100083F
:10011000630100086301000863010008630100082F
:10012000630100086301000863010008630100081F
:10013000DFF810D000F08EFA004800478D14000858
:10014000AFF300806830002006488047064800472B
:10015000FEE7FEE7FEE7FEE7FEE7FEE7FEE7FEE777
:10016000FEE7FEE70107000831010008421C10F815
:10017000011B0029FBD1801A70472DE9FE4F81EA4F
:10018000030404F0004421F0004100944FF0000B00
:1001900023F0004350EA01045ED052EA03045BD02E
:1001A000C3F30A54C1F30A552C44A4F2F334019466
:1001B000A0FB0254C1F3130141F48011C3F31303F4
:1001C00043F4801301FB024400FB034E840A970AA8
:1001D00044EA815447EA8357A4FB076802958D0AD5
:1001E00005FB07854FEA932C04FB0C542705029D61
:1001F0004FEA065847EA1637B5EB08056EEB070CD1
:10020000870E920E47EA811742EA8312A7FB02018A
:10021000B6EB0B0164EB00042B0D43EA0C335E18C4
:1002200044EB1C50DA465146E7FB0201C5F31304C8
:100230004FEA0B3343EA14534FEA0432019C43EA7A
:100240000603A4F10C040294009CCDE900B400F074
:100250006CF803B0BDE8F08F00200146F9E730B537
:100260000B46014600202022012409E021FA02F574
:100270009D4205D303FA02F5491B04FA02F528440E
:10028000151EA2F10102F1DC30BD2DE9F05F05463B
:10029000002092469B4688460646814640241BE045
:1002A000284641464746224600F020F853465A4623
:1002B000C01A914110D311461846224600F0DCF9CD
:1002C0002D1A67EB01084F4622460120002100F05D
:1002D000D3F917EB00094E41201EA4F10104DFDC25
:1002E000484631462A464346BDE8F09F202A04DBB3
:1002F000203A21FA02F00021704721FA02F3D0409F
:10030000C2F12002914008431946704710B5141EEF
:1003100073F1000408DA401C41F1000192185B41BE
:100320001A4301D120F0010010BD2DE9F04D924695
:100330009B4611B1B1FA81F202E0B0FA80F22032AC
:10034000904600F099F904460F4640EA0A0041EA57
:100350000B0153465A46084313D0114653EA010095
:1003600019D0C8F140025046FFF7C0FF05460E46BF
:1003700050465946424600F07FF9084305D0012017
:1003800004E020463946BDE8F08D0020054346EAEA
:10039000E0762C4337430A986305E40AA0EB080093
:1003A0000022FD0A44EA47540A3002D500200146E3
:1003B000E9E7010510196941DDE9084500196941BE
:1003C000BDE8F04DA2E72DE9FE4F804681EA03002B
:1003D000C00F0C46009021F0004123F00045B8EB1F
:1003E0000200A94105D24046214690461C460B46D4
:1003F000024623F00040104347D0270DC7F30A0000
:10040000C3F30A510290401A019040286BDAC3F3FB
:10041000130040F4801B0098924620B10023D2EBD9
:10042000030A63EB0B0B01985946C0F1400250469A
:1004300000F022F906460D4650465946019A00F052
:100440002AF910EB08006141002487EA115284EA7E
:10045000E7731A4340D0009A62B3019A012A4FEA27
:10046000075215DC001B61EB02014FF0004202EA6B
:100470000752CDE90042001C41F5801132462B465F
:10048000FFF753FF03B0BDE8F08F40462146F9E780
:10049000001B61EB0201001C41F5801300185B4159
:1004A0002018A2F5001747EB030140EAD570B619F2
:1004B0006D4111E06D084FEA360645EAC0754FEA16
:1004C0000752001B61EB0201001C41F58011490835
:1004D0004FEA30000019514132462B4603B0BDE8C7
:1004E000F04FFFF713BF0098012240000023D0EB2C
:1004F000020263EBE073009821464FEAE074B8EB28
:10050000000061EB0401E9E783F000435BE781F061
:10051000004158E72DE9F04D81EA030404F0004B57
:1005200021F0004514464FF0000A23F0004150EA44
:10053000050220D054EA01021DD0C5F30A57024635
:10054000C5F31303C1F31300C1F30A5640F4801539
:1005500043F48013A7EB0608101BD64608F2FD38BB
:1005600073EB050002D308F1010801E092185B412A
:10057000B8F1000F03DA00200146BDE8F08D00203D
:100580004FF48011064684460EE0171B73EB0507F7
:1005900005D3121B63EB050306434CEA010C490823
:1005A0004FEA300092185B4150EA0107EDD152EA60
:1005B000030012D082EA040083EA0501084305D053
:1005C000101BAB4106D20122002306E000224FF0AF
:1005D000004302E06FF0010253101AEB06004CEBEF
:1005E000085110EB0A0041EB0B01BDE8F04DFFF79D
:1005F0008DBEC1F30A52C1F3130140F2FF3341F43F
:1006000080119A4202DA00200146704740F23343DB
:100610009A42A2F2334202DC5242FFF767BE00F078
:100620002BB8000030B5041E71F1000404DB4FF05C
:100630000044404264EB0101141E73F1000405DB29
:100640001C464FF00043524263EB0403994208BF3B
:10065000904230BD064C074D06E0E06840F00103D3
:1006600094E8070098471034AC42F6D3FFF764FDD6
:10067000781D0008981D0008202A04DB203A00FAA3
:1006800002F1002070479140C2F1200320FA03F3E9
:10069000194390407047202A06DBCB17203A41FAD5
:1006A00002F043EAE07306E041FA02F3D040C2F1FF
:1006B0002002914008431946704700BFFEE770478B
:1006C00000BFFEE700BFFEE77047000010B500283E
:1006D00007DA0A07140E054A00F00F031B1FD45453
:1006E00003E00A07130E024A135410BD18ED00E090
:1006F00000E400E07047704710B500F007FD10BD42
:1007000010B51448006840F001001249086008461E
:100710004068114908400F494860084600680F4981
:1007200008400C4908600846006820F480200860F2
:10073000084640680A49084006494860084600687B
:1007400006490840034908604FF41F00886001F023
:10075000BBF810BD001002400C00FFE8FFFFF6FEE2
:10076000FFFF00F710B52D492D4801F0ACFA002825
:1007700052D004212A4801F08AFA294801F028FAC7
:100780000421284800F019FE40F20111081A2649F8
:10079000098808442449088008460088401E2349E7
:1007A00008442149496D48601F48406D08301E4982
:1007B00048650846406DC96D884203D11A48001D3E
:1007C000011F486518480088C0F50060FF2807DD54
:1007D00015480088154908441349496D086006E02A
:1007E00012481149496D086000200F490880042112
:1007F0000C4800F097FC40F201120421094800F077
:10080000C9FD0948406D04210268064800F0A4FDB6
:100810000421044800F09FFC10BD00000403040004
:1008200000380140000002400810002008000020AD
:1008300000BFFEE737B514460846064B6A46214618
:1008400000F0DCF804466946002000F05AFC20461F
:100850003EBD00000311000802E008C8121F08C1D5
:10086000002AFAD170477047002001E001C1121F31
:10087000002AFBD1704700002DE9FF5F82B0002104
:10088000DDE90430020DDDF840B0034318D044F632
:100890001050A2F2FF3242431514119801281FD0C4
:1008A000A5EB0B00401C5FEA000A4FF000064E4F1C
:1008B000DFF83891B046504615D5CAF1000413E070
:1008C000119801244AA3012801D16FEA0B01029873
:1008D000119AC0E90031C0E9024206B0BDE8F09FBC
:1008E000CBF10000DFE704460021404A491842EB03
:1008F0000450CDE9001012E0E00707D032463B4635
:1009000040464946FFF739FC8046894632463B4619
:1009100010461946FFF731FC06460F466410002CBE
:10092000EAD1DDE90401DDE90023BAF1000F06DABE
:10093000FFF723FC42464B46FFF71FFC05E0FFF79D
:10094000E9FD42464B46FFF7E5FD04460E46002210
:10095000284BFFF767FE03D84FF0FF30014607E052
:100960000022254B20463146FFF72DFDFFF741FEC3
:10097000102409E0002C0ADB0A220023FFF785FC83
:10098000039B30321A55641E50EA0102F2D1641CF6
:10099000039AC4F111031444119A012A03D00122CD
:1009A00008430DD10AE0084304D000204FF0110B9A
:1009B000119072E7A3EB0B056D1E0DE05B4504DDA6
:1009C0004FF0000205F1010504E003DA4FF00002E8
:1009D000A5F10105002AECD002981199C0E9023175
:1009E000C0E9004579E70000000014400000F03F36
:1009F000300000000000F0430000E03F2DE9FF4F11
:100A000095B09A46884606460025EEE1252877D11E
:100A100000242746F94A0121039400E0044316F814
:100A2000013F203B01FA03F01042F7D130782A2829
:100A300011D06FF02F033078A0F13002092A16D8B8
:100A4000039A44F0020402EB820203EB42021044D8
:100A5000761C0390EFE758F8042B0392002A03DA80
:100A6000504244F40054039044F00204761C307861
:100A70002E2816D116F8010F44F004042A280DD0B0
:100A80006FF02F023078A0F13003092B09D807EB63
:100A9000870302EB4303C718761CF3E758F8047B7F
:100AA000761C30786C280FD006DC4C2817D06828CC
:100AB0000DD06A2814D104E0742810D07A280FD100
:100AC0000DE044F400140AE044F4801401E044F41E
:100AD00040147278824202D104F58014761C761C90
:100AE000307866280BD013DC582877D009DC002832
:100AF00075D04528F6D04628F4D047281AD193E17E
:100B000018E0632835D0642879D0652812D18BE1AC
:100B1000702873D008DC6728F1D069286FD06E2860
:100B20000DD06F2806D1ACE073282CD0752874D076
:100B3000782853D05246179990476D1C54E1C4F35E
:100B40000250022809D003280DD0D8F8001004283C
:100B50000DD00D6008F1040846E1D8F80010EA173E
:100B6000C1E90052F6E7D8F800100D80F2E70D70E9
:100B7000F0E718F8041B8DF8001000208DF8010034
:100B8000EB46012003E058F804BB4FF0FF3061074B
:100B90004FF0000102D40DE009F101018946B9428C
:100BA0000FDA8145F8DB1BF809100029F4D108E0C1
:100BB00009F1010189468142FADB1BF8091000297D
:100BC000F6D103985346A0EB090721463846179AF9
:100BD00000F080FA284400EB090507E044E008E152
:100BE0000DE01BF8010B524617999047B9F1010926
:100BF000F7D2534621463846179AF2E039E00A21E7
:100C0000C4F302524FF0000B0091022A06D058F8AC
:100C1000040BC117032A09D00AE023E008F10700FA
:100C200020F00702F2E80201904605E000B2C11789
:100C3000042A01D140B2C117002906DA0A46002170
:100C4000404261EB02012D2202E0220504D52B2255
:100C50008DF80420012203E0E20701D02022F7E70B
:100C6000914657E00A2100E010214FF0000B00915F
:100C70000BE010214FF0000B44F004040827009112
:100C800003E008204FF0000B0090C4F30252022A48
:100C900005D058F8040B0021032A08D008E008F119
:100CA000070020F00702F2E80201904603E080B25C
:100CB000042A00D1C0B24FF0000922072AD53278A9
:100CC000702A07D0DDF800C08CF0100C5CEA0B0C29
:100CD00005D00EE040228DF80420012208E050EA01
:100CE000010306D030238DF804308DF80520022250
:100CF0009146009B83F0080353EA0B030AD150EAA4
:100D0000010201D1620705D530228DF804204FF091
:100D100001097F1E3278582A04D039A20C920CAAFD
:100D200002920BE03BA2F9E75B46009AFFF7ADFAAF
:100D30000C9B9B5C029A521E0292137050EA0102B5
:100D4000F2D1029804A9081A00F1200B600702D51D
:100D500024F4803400E001275F4502DDA7EB0B009F
:100D600000E0002000EB0B01009003984944401A7A
:100D70000390E00306D453462146179A039800F0E7
:100D8000A9F90544002706E001A85246C05D17995D
:100D900090476D1C7F1C4F45F6DBE0030CD5534696
:100DA0002146179A039800F095F9054404E0302095
:100DB0005246179990476D1C0099481E00900029D3
:100DC000F5DC08E00298029952460078491C02912D
:100DD000179990476D1CBBF10001ABF1010BF1DCE1
:100DE0005BE100F065F90544761C307800287FF45B
:100DF0000DAE19B02846BDE8F08F000009280100AB
:100E00003031323334353637383961626364656680
:100E10000000000030313233343536373839414242
:100E20004344454600000000600700D4062708F14F
:100E3000070020F00700F0E80223804603F0004C92
:100E40005FEA0C0001D097A009E0200501D596A02B
:100E500005E0E00701D095A001E0AFF24C0013904F
:100E6000307823F0004365280CD006DC452809D0F3
:100E700046281DD047287FD13BE0662818D0672838
:100E80007AD136E00021112F01DB112000E0781C1F
:100E9000CDE9000104A90CA8FFF7EEFCDDE90D0186
:100EA0000C9A4FF0000B07F10109109200914EE0EF
:100EB0004FF000400097CDE9011004A90CA8FFF7FE
:100EC000DBFCDDE90D020C9B0F994FF0000B914606
:100ED0001093009211B9791C00EB0109B7EB0900DE
:100EE00003D4C0F1FF3B07F10109A9EB0700019012
:100EF00042E0012F00DA01270021112F01DD11202E
:100F000000E03846CDE9000104A90CA8FFF7B4FCC5
:100F1000DDE90D010C9A00914FF0000BB9461092DB
:100F200021070FD4009A4A4503DA914601E0A9F15E
:100F30000109B9F1010F05DD109AA9F10101515C18
:100F40003029F4D0B84202DA10F1040F03DA01219B
:100F5000CDE9011010E0002803DC8344A9EB000177
:100F600002E0411C494500DD8946A0EB0B00401C16
:100F700001904FF000400290200705D401984845A9
:100F800002DB4FF0FF30019000208DF84B000298FB
:100F90000DF14B07B0F1004F25D002200C902B2013
:100FA0000D90029800280CDA404202902D200D90FE
:100FB00007E00A210298FFF752F93031029007F852
:100FC000011D0C99481E0C900029F2DC02980028A3
:100FD000EFD1791E0D980870307800F0200040F0B5
:100FE000450007F8020D11A8C01BC01D0290139800
:100FF000007800B1012000EB0901019801EBE071DC
:10100000029801440398401A401E0390E00306D45E
:1010100053462146179A039800F05CF8054413984C
:10102000007818B15246179990476D1CE00323D5FC
:1010300053462146179A039800F04CF805441BE0EC
:10104000BBF1000F07DB0098584504DD1098179995
:1010500010F80B0001E01799302052469047019894
:101060000BF1010B401E05F10105019004D12E206A
:101070005246179990476D1CB9F10001A9F1010979
:10108000DEDC05E017F8010B5246179990476D1CFE
:101090000299481E02900029F4DC53462146179A13
:1010A00003989EE62D0000002B00000020000000A9
:1010B0002DE9F041044600251E461746880404D455
:1010C00005E039462020B0476D1C641EF9D528463E
:1010D000BDE8F0812DE9F041044600251E4690460A
:1010E000C80301D5302700E02027880404D505E097
:1010F00041463846B0476D1C641EF9D52846BDE808
:10110000F0810A68531C0B60107070470448006837
:1011100020B103480068401E014908607047000084
:101120000400002070B505460C462146284600F014
:1011300025F908B900BFFEE704EB8400810005F142
:101140000800405820F0010104EB8400820005F102
:101150000800815070BD70B505460C4621462846F2
:1011600000F00CF908B900BFFEE704EB8400810031
:1011700005F10800405840F0010104EB84008200B2
:1011800005F10800815070BD70B505460C4621463A
:10119000284600F0F3F808B900BFFEE704EB84002E
:1011A000810005F10800405820F0200104EB840084
:1011B000820005F10800815070BD70B504460D46EF
:1011C0002946204600F0DAF808B900BFFEE705EB33
:1011D0008500810004F10800405820F0010105EB72
:1011E0008500820004F108008150002105EB850094
:1011F000820004F10800815005EB8500820004F1B3
:101200000C00815005EB8500820004F11000815034
:1012100005EB8500820004F1140081506068AA008B
:101220000F2191400843606070BD2DE9F0410446F4
:101230000D4616462946204600F0A0F808B900BF22
:10124000FEE705EB8500820004F110003168815053
:1012500005EB8500820004F11400B1688150308AEA
:1012600081B205EB8500820004F10C00815005EB92
:101270008500810004F10800475827F47C57F16885
:101280007068084371690843074305EB85008100D6
:1012900004F108004750307E01280ED105EB85008F
:1012A000810004F10800405840F0400105EB850042
:1012B000820004F1080081500DE005EB85008100FB
:1012C00004F10800405820F0400105EB8500820041
:1012D00004F108008150707E01280ED105EB8500D5
:1012E000810004F10800405840F0800105EB8500C2
:1012F000820004F1080081500DE005EB85008100BB
:1013000004F10800405820F0800105EB85008200C0
:1013100004F108008150B07E70B905EB85008100B2
:1013200004F10800405820F0100105EB8500820010
:1013300004F1080081500DE005EB8500810004F107
:101340000800405840F0100105EB8500820004F1D0
:1013500008008150BDE8F08170B506460C46154680
:101360002146304600F00AF808B900BFFEE704EB5A
:101370008400810006F11400455070BD0246012032
:10138000034B9A4202D1042900DD0020704700007F
:101390000004024070B506460C461546214630460C
:1013A000FFF7ECFF08B900BFFEE7A9B204EB840029
:1013B000820006F10C00815070BD70B505460C46E8
:1013C00021462846FFF7DAFF08B900BFFEE704EB25
:1013D0008400810005F10C00405870BD0161704728
:1013E000F0B5044616460025002201F00F0501F075
:1013F000100707B1354300201EE0012787401F403A
:10140000C7B122684FEA800C0F2707FA0CF7BA43DE
:10141000870005FA07F73A43282904D101278740B6
:101420001F40676105E0482903D1012787401F401D
:1014300027612260471CB8B20828DED3082022E0CA
:10144000012787401F40E7B16268A0F108074FEA13
:10145000870C0F2707FA0CF7BA43A0F10807BF0063
:1014600005FA07F73A43282904D1012787401F408E
:10147000676105E0482903D1012787401F402761A4
:101480006260471CB8B21028DAD3F0BD00F020FA31
:101490004FF4612000F002FB00F05AFC03A000F0C2
:1014A0003FFA01E000F06AFAFCE700004576657259
:1014B000797468696E67206973204F4B0D0A0000CC
:1014C0002DE9F04103460D46164600240027A046AC
:1014D0002448006800F4E060B0F5A06F15D006DC89
:1014E000B0F5407F18D0B0F5806F19D110E0B0F59D
:1014F000C06F06D0B0F5E06F12D100274FF004089E
:1015000015E001274FF0030811E00227B8460EE06E
:1015100003274FF001080AE004274FF0000806E017
:101520004FF4A06000F022F80227B84600BF00BFC9
:10153000C7F1040005FA00F4C8F104010F20C84007
:101540003040044324010848C45403F01F01012023
:1015500088405911890001F1E021C1F80001BDE87E
:10156000F08100000CED00E000E400E002490143DE
:10157000024A1160704700000000FA050CED00E01F
:101580002DE9F04F8BB00746002009903EA090E86F
:10159000004CC068CDE905BECDF810A007900FF251
:1015A000EC0ADAE9000ACDE9020A0FF2E00ADAE908
:1015B000000ACDE9000A38484068C0F381000A906B
:1015C0000A9820B1012804D0022829D103E0334928
:1015D00028E0324926E03048406800F48038B8F509
:1015E000803F09D12D4C2C48406800F40039B9F5F2
:1015F000003F02D1641000E0294C27484068C0F346
:1016000083422548406800F0006008B142F01002B3
:101610000F2A01D2921C00E0521C04FB02F101E0EF
:101620001E4900BF00BF1C484068C0F3031504A852
:10163000465D21FA06F318484068C0F3022502A867
:10164000465D23FA06FC14484068C0F3C2251DF825
:10165000056023FA06F0089037B1012F06D0022F5B
:1016600006D0032F0AD106E0099108E0099306E0AD
:10167000CDF824C003E00898099000E000BF00BF47
:1016800009980BB0BDE8F08F0000000000000000DA
:1016900001020304060708090010024000127A0044
:1016A00000093D00064A02EB9011096800F01F0393
:1016B00001229A401143024B03EB901211607047D4
:1016C00000100240064A02EB9011096800F01F0367
:1016D00001229A409143024B03EB90121160704734
:1016E00000100240064A02EB9011096800F01F0347
:1016F00001229A401143024B03EB90121160704794
:101700000010024000B587B040F20C60FFF7CAFF3E
:1017100040F20260FFF7C6FFA02303221821114800
:10172000FFF75EFE4023032204210E48FFF758FE18
:101730000D4800F021F84FF48270009000200190D5
:1017400002904FF4007003900020049005900690E2
:101750006946054800F03CF8034800F007F807B078
:1017600000BD00000008014000300140016841F068
:10177000400101607047000010B504461348204442
:1017800070B1B0F5806F14D0B0F5784F1AD14FF426
:101790004370FFF7A7FF4FF44370FFF793FF12E08A
:1017A00040F20E40FFF79EFF40F20E40FFF78AFF27
:1017B00009E040F20F40FFF795FF40F20F40FFF7BE
:1017C00081FF00E000BF00BF10BD000000C8FFBFE8
:1017D00002460020106800F441500B6818434B6823
:1017E00018438B681843CB6818430B6918434B693F
:1017F00018438B6918431060D36923F40063D361E5
:1018000070470000002000212C4A126842F4803208
:101810002A4B1A6000BF401C284A126802F40031AB
:1018200019B94FF6FF729042F5D1244A126802F4BA
:1018300000320AB900BFFEE7204A52681F4B5A60C7
:101840001A4652685A601A46526842F480625A60D8
:101850001A46526822F440325A601A46526842F4DC
:1018600040325A601A465268154B1A40134B5A6060
:101870001A465268134B1A43104B5A601A461268A4
:1018800042F080721A6000BF0C4A126802F00072C7
:10189000002AF9D0094A526822F00302074B5A6025
:1018A0001A46526842F002025A6000BF034A526868
:1018B00002F00802002AF9D0704700000010024030
:1018C000FFFFC3F70000280810B5FFF79BFF10BD0E
:1018D00010B5124800684FF47A71B0FBF1F4601E45
:1018E000B0F1807F01D301200FE0601E4FF0E021B6
:1018F00048610F214FF0FF30FEF7E8FE00204FF067
:10190000E021886107200861002008B100BFFEE7E0
:101910000021481EFEF7DAFE10BD00000000002086
:101920000FB438B505A800901248009A0499FEF744
:1019300081FF0020009000240DE000BF07210E4829
:1019400000F0A5F90128F9D10A48015D0A4800F024
:1019500044F9601C84B20748FEF708FCA042ECD8AA
:1019600000BF0721044800F092F90128F9D138BCE2
:101970005DF814FB080800200038014010B51B4832
:10198000806D1A49496D88422FD01848806D406893
:10199000164A926D1268801A411C15A0FFF7C0FF0D
:1019A000002407E01148806D0068015D15A0FFF775
:1019B000B7FF641C0D48806D40680C49896D09684B
:1019C000401A401CA042EDDC0FA0FFF7A9FF07481A
:1019D000806D0830054988650846806DC96D88426C
:1019E00003D10248001D011F886510BD08100020AA
:1019F0007265736576696520256420627974650D6A
:101A00000A000000256300000D0A00000648011FBF
:101A1000486588654830C8650448496D08600020FD
:101A20000149091F088070470C10002008000020A1
:101A300000B587B04FF4A060FFF734FE04211448CE
:101A4000FFF7BBFB13480090002001901248029062
:101A50000020039040F2011004904FF400500590D4
:101A600000208DF8180001208DF8190000208DF855
:101A70001A006A4604210648FFF7D7FB04210448F0
:101A8000FFF782FB04210248FFF765FB07B000BDAA
:101A900000000240043801400800002010B5044650
:101AA00040F20E60FFF7FEFD40F20260FFF7FAFD24
:101AB0004FF40073032218211F48FFF791FC4FF4E5
:101AC0008063032204211C48FFF78AFC1B4800F0B6
:101AD00089F82146194800F033F80021174800F032
:101AE0000EF90021154800F02AF90021134800F0F2
:101AF00016F90821114800F01AF904210F4800F0E6
:101B000006F940210D4800F0B5F84FF441710B483B
:101B100000F0CCF84FF4A060FFF728FD002211463A
:101B20002520FFF7CDFC054800F0ACF8FFF76EFF6D
:101B3000FFF77EFF10BD00000008014000380140A3
:101B40002DE9F04704460D460027B846B946002661
:101B50001D49601A8C421CD006DC1C48204470B120
:101B6000B0F5806F1FD10FE0B0F5806F16D0B0F5E3
:101B70006C4F18D10320FFF703FD074614E0022045
:101B8000FFF7FEFC07460FE00220FFF7F9FC0746CF
:101B90000AE00220FFF7F4FC074605E00220FFF709
:101BA000EFFC074600E000BF00BF07EB5500B0FBAD
:101BB000F5F64FF6F07006EA000806F00F0948EA5D
:101BC0000900A060BDE8F087004C004000BCFFBFEA
:101BD00001464868C0F308007047C1F3080242603C
:101BE0007047000010B504462049601A8C4228D086
:101BF00006DC1F48204490B1B0F5806F33D117E068
:101C0000B0F5806F26D0B0F56C4F2CD140F20E307D
:101C1000FFF768FD40F20E30FFF754FD24E040F27C
:101C20001140FFF75FFD40F21140FFF74BFD1BE055
:101C300040F21240FFF756FD40F21240FFF742FD1E
:101C400012E040F21340FFF74DFD40F21340FFF762
:101C500039FD09E040F21440FFF744FD40F2144022
:101C6000FFF730FD00E000BF00BF10BD004C00409A
:101C700000BCFFBF0A460021416921F04001114329
:101C800041617047C16841F40051C160704710B5AF
:101C9000024602EB9110006801F01F040123A340EB
:101CA000184008B1012010BD0020FCE710B5C1F3B9
:101CB0008912825801F01F040123A3401A43C1F383
:101CC0008913C25010BD70B5024600230024C1F331
:101CD0008910105801F01F060125B54000EA0503E0
:101CE00002EB91500068C1F304460125B54000EABB
:101CF000050414B10BB1012070BD0020FCE7C268DF
:101D000022F4C062C260C2680A43C26070470A46D9
:101D10000021C16821F004011143C16070470269CC
:101D200022F44052026102690A43026170470A4686
:101D30000021C16821F008011143C1607047C268E9
:101D400022F48052C260C2680A43C2607047000039
:101D500010B540F20260FFF7A5FC102303221946DC
:101D60000448FFF73DFB10210248FFF737FBFFF760
:101D7000C9FC10BD00080140981D000800000020AB
:101D80000800000058080008A01D000808000020F6
:101D9000603000006808000800F36F0600000000D3
:0400000508000131BD
:00000001FF
